S00C0000746573742E7372656358
S214080000602E0720F1080800ED080800ED08080033
S214080010ED080800ED080800ED08080000000000DC
S214080020000000000000000000000000ED080800C6
S214080030ED08080000000000ED080800ED080800BC
S214080040ED080800ED080800ED080800ED080800AF
S214080050ED080800ED080800ED080800ED0808009F
S214080060ED080800ED08080000000000D9010800A7
S214080070B9070800C9070800D907080000000000EB
S21408008000000000ED080800ED080800ED0808006C
S214080090ED080800ED080800ED080800ED0808005F
S2140800A0ED08080000000000ED08080065030800D9
S2140800B089030800AD030800D5030800ED0808000A
S2140800C0ED080800ED080800ED080800F903080028
S2140800D0ED080800ED080800ED080800ED0808001F
S2140800E0ED080800ED080800ED080800ED0808000F
S2140800F0ED08080010B5054C237833B9044B13B146
S2140801000448AFF300800123237010BD18050720AC
S214080110000000003C0C0800084B10B51BB108494D
S2140801200848AFF300800848036803B910BD074BBA
S214080130002BFBD0BDE81040184700BF00000000A9
S2140801401C0507203C0C08003C0C080000000000BA
S21408015042B2C0B210B5012300F01F0403FA04F43B
S2140801605309002A4FEA83034FEA0111A8BF02F198
S214080170604203F16043B8BF094A03F56143B9BF5B
S21408018000F00F00C9B2C9B202F56142C3F8804058
S214080190C3F88041B4BF115482F800131C6010BD28
S2140801A014ED00E038B5094C094B80254FF4006281
S2140801B01A61002125640B20064B9847C4F8B050F6
S2140801C0C4F8C050C4F8D45038BD00BF000E0E4066
S2140801D000060E405101080070B51B491B4C1C4B0D
S2140801E00A68DB6CD4F890301A489A1A0260D4F879
S2140801F090300A240B60184906460B680D46C3EB78
S2140802000313B3FBF4F39A42144C08D90023236073
S214080210134B9A6B12F4003F4FF4003208E0236841
S2140802200C2B08D10E4B9A6B12F4000F4FF40002F9
S21408023014BF5A631A630B4B206898472368013328
S214080240236033682B6070BDB00D0720008008401F
S214080250000E0E40B80D0720540E0720580E072033
S21408026000120E404104080008B5084B4FF0006223
S2140802701A610121064B1B209847064B05224FF4AE
S21408028000415A6259601A6008BD00BF00060E4059
S214080290510108000000084008B5084B4FF080528E
S2140802A01A610221064B1C209847064B05224FF47C
S2140802B000415A6659641A6408BD00BF00060E401D
S2140802C0510108000000084008B5094B4FF00052DD
S2140802D01A610321074B1D209847074B05224FF448
S2140802E00041C3F8A420C3F88410C3F8802008BDD2
S2140802F000060E40510108000000084008B5084BEB
S2140803004FF080421A610421064B1E209847064B80
S21408031005224FF400415A6259601A6008BD00BFB2
S21408032000060E40510108000040084008B50A4B78
S2140803300822C3F800210921084B23209847084BB8
S2140803400122C3F8A4204FF40042C3F884200522F3
S214080350C3F8802008BD00BF00060E405101080003
S21408036000800840064B1A6A064A916B11F4003F53
S2140803704FF4003114BF5163116302221A607047AC
S2140803800000084000120E40064B1A6E064A916B93
S21408039011F4000F4FF4000114BF516311630222D9
S2140803A01A6470470000084000120E40074BD3F846
S2140803B0A020074A916B11F4002F4FF4002114BFB8
S2140803C0516311630222C3F880207047000008407A
S2140803D000120E40064B1A6A064A916B11F0805FAF
S2140803E04FF0805114BF5163116302221A607047A0
S2140803F00040084000120E4070470000074B4FF4BC
S21408040080721A615022C3F800224FF40062C3F8C3
S21408041004222D22C3F82022704700BF00060E4093
S214080420034A53699B07FCD5014BD861704700BF48
S21408043000080E400A20014B184700BF2104080098
S2140804402DE9F04105460E4CDFF83C8001210023DB
S2140804500A27B5FBF4F606F13000C0B2302802D100
S2140804600BB90A2901D1C047012301310B2904FB26
S2140804701655B4FBF7F4ECD1BDE8F041014B18472C
S21408048000CA9A3B350408002104080070B50F48D6
S2140804900F4CA0473E2100200E4B98470E4DA8470C
S2140804A00028FCD00D4B98470D4A0E4B0E4D9A620D
S2140804B0A8470028FCD00D4B102098470C4B9847AF
S2140804C02346BDE870400148184700BF00BD010537
S2140804D0890007202D0808007D0808008D080800F8
S2140804E0013F0D2000060E409D080800E907080099
S2140804F071090800184B4FF4004210B50B205A60DB
S214080500164CA0470C20A0470D20A0470E20A04759
S214080510134C4FF060513B20A0474FF060515520D8
S214080520A0474FF060515620A0470E496820A047C4
S2140805300D495C20A0470D4B0D4A4FF440710D48FD
S21408054098474FF000612B20A0472346BDE810408F
S2140805504FF000612A201847501A0E40AD080800D0
S2140805600D0608007900002801000028D5060800B6
S21408057001000008000E0E40B1F1805F426414D0FE
S21408058009D8B1B1B1F1006F12D1016F036F0B40FA
S21408059023EA02030BE0B1F1405F0AD0B1F1605FD5
S2140805A007D0B1F1205F03D17047036F1343036789
S2140805B042607047D30741644CBF4166016612F03B
S2140805C00A0F14BF01624162930702D5C0F8801073
S2140805D003E0130748BFC0F8841041610160704704
S2140805E010B5029C41640CB1416600E001660BB18F
S2140805F0016500E041650AB1016300E041630161FD
S214080600016010BDC06C7047806C7047F7B545092F
S2140806100E4605F5001501F0F04105F20775B1F133
S214080620205F4FEA45252CD015D8B1F1006F19D0B8
S214080630B1F1805F44D100F01F01012000FA01F1FA
S21408064069642B6FF40743EA01032B6769604CBFA4
S2140806506966296635E0B1F1405F1CD0B1F1605F8C
S21408066019D02DE000F01F04012707FA04F42846E5
S2140806702246154B9847F6074CBF6C662C663846DC
S2140806801FE000F01F010124324604FA01F1284653
S2140806900E4B984712E006F0605200F01F01012446
S2140806A002F1484006EA0403424200934241C6F378
S2140806B08003284604FA01F1054DA847204600E0C5
S2140806C0002003B0F0BD00BF79050800B505080096
S2140806D0E105080002F0F043B3F1205F73B5044665
S2140806E00D4616461CD00BD8B3F1006F0FD0B3F1E9
S2140806F0805F29D16164036F0B43036761600AE07A
S214080700B3F1405F10D0B3F1605F0DD01CE00A462D
S21408071019460F4B9847F0074CBF6566256601E0FB
S2140807200C4B9847012010E006F0605202F1484151
S21408073006F001034A4200934A412046C6F3800366
S2140807402946054CA047EDE7002002B070BD00BF63
S21408075079050800B5050800E1050800F8B5134B4B
S21408076004460F469847124B0546204698470540CC
S2140807701AD0104C04F1600654F80C3CBB420FD15A
S21408078054F8081C29420BD023683846984754F872
S214080790083CA64225EA030506D0103425B1EBE747
S2140807A0A64201D01034E7E7F8BD00BF05060800EA
S2140807B009060800400507200C210148014B184788
S2140807C000100E405D0708000D210148014B184730
S2140807D000120E405D0708000E210148014B18471D
S2140807E000140E405D0708000F4B1A6B22F07002CB
S2140807F0104340F601021863986E0B49000703D4AD
S214080800013AF9D1012070470A6B22F0030242F040
S21408081002020A6340F60102996E090702D4013AF9
S214080820FAD1EFE70020704700060E4010B5104CCE
S21408083030B1236A0F4A1A400F4B1343236210BD88
S214080840226A090222F45C1323F0030343F45C13C0
S21408085089B243F001030B432362A36E044ADB0705
S214080860FBD5136A43F09B7343F48033136210BDC1
S21408087000060E40FCFFC8FE02003701024B986EC9
S21408088000F48030704700BF00060E40024B4FF061
S21408089000529A62704700BF00060E40024B986EE0
S2140808A000F00200704700BF00060E402C2817D83C
S2140808B01F280D4A4FF0010307D8916903FA00F084
S2140808C030EA01030ED010610CE02038D2F8081187
S2140808D003FA00F030EA010304D0C2F8000101E090
S2140808E0012070470020704700060E40FEE7000013
S2140808F008B5164A164B9A4202D0043A154903E040
S214080900154B164A002106E08B42F9D252F8040F1E
S21408091043F8040BF8E7934202D243F8041BFAE7BD
S2140809200F4B104A23F0604121F07F0103F160432A
S214080930B3F5801F91603EBF936843F00053936001
S214080940094B9847094B9847FEE700BF3C0C080040
S2140809500000072018050720180507205C0E07204A
S2140809600000080000ED00E0D50A08005D0A08004F
S21408097010B52C4A136B03F00303012B2A4B0DD03A
S21408098003D3116ACC011AD525E028494969080617
S2140809904CBF4FF400414FF4FA4130E0116AC901E8
S2140809A00BD423491960116A01F07001102902D08E
S2140809B0202902D024E01F4921E01F491FE01C49D6
S2140809C01960116A01F07001102902D0202902D09E
S2140809D003E0184900E018491960116B114801F046
S2140809E00301022901BF816A806AC1F30A441968B3
S2140809F003BFC0B204FB0111B1FBF0F10F49196047
S214080A00126B02F07002702A03BF1A680321B2FB49
S214080A10F1F2044A1FBF126BC2F302111A68CA40E9
S214080A201A6010BD00060E40EC000720101A0E4093
S214080A3000093D0000127A00001BB700001C4E0E8D
S214080A40044B4FF400521A61034AC3F8002CC3F84B
S214080A50102C704700060E4000008A1008B50F4B91
S214080A6098470F4B98470F4B98470F4B98470F4B95
S214080A7098470F4B98470F4B98470F4B98470F4B85
S214080A8098470F4B98470F4A002313600E4A136087
S214080A900E4A13600E4A1360FEE700BF8D04080076
S214080AA0F5040800FD03080069020800990208001A
S214080AB0C9020800FD0208002D030800A501080069
S214080AC0410A0800580E0720B80D0720540E0720C4
S214080AD0B00D072070B50F4E0F4D761BB61018BF19
S214080AE0002405D0013455F8043B9847A642F9D1AE
S214080AF00A4E0B4D00F090F8761BB61018BF00246F
S214080B0006D0013455F8043B9847A642F9D170BD83
S214080B1070BD00BF240C0800240C08002C0C08002C
S214080B20240C0800024B13B1024800F005B87047C1
S214080B3000000000450B0800002301461A46184628
S214080B4000F014B838B5074D074C2C1BA41005D078
S214080B50013C55F8043D9847002CF9D1BDE83840CB
S214080B6000F064B83C0C0800380C08002DE9F04783
S214080B70254C064625688846D5F848419246994643
S214080B80C4B360681F2817DC411C76B104EB8003E9
S214080B90C3F888A0D4F88851012282401543022E53
S214080BA0C4F88851C3F808911ED0831C61600020E1
S214080BB044F82380BDE8F087144B03B34FF4C8709D
S214080BC0AFF300800446D0B1D5F84831002784E852
S214080BD088003846C5F848410121C4F88871C4F829
S214080BE08C71002EE1D0D1E7D4F88C311A43C4F8C2
S214080BF08C21DAE705F5A674C5F84841C1E74FF039
S214080C00FF30BDE8F08700BF140C080000000000A5
S214080C1043000000F0000720F8B500BFF8BC08BC89
S214080C209E467047250B080019010800F8B500BF56
S210080C30F8BC08BC9E467047F50008009B
S214080C3C1A4A4FF480631360C2F80032184B1A6ACB
S214080C4CD10102D5174A1A6205E0174A1A629A6E3B
S214080C5CD207FCD5F6E79A6E1149D003FBD50A6B7A
S214080C6C22F0030242F001020A639A6E1207FCD5C0
S214080C7C0E490B4A91629A6E9007FCD5084A1121C8
S214080C8C11639A6E1107FCD5054A122111639A6EE8
S214080C9C1207FCD5064A074B1A607047000A0E4026
S214080CAC00060E400908370109083700013F0D20D9
S214080CBC00BD0105EC000720114B124A9842124B56
S214080CCC01D8002118E01149884202D84FF48071E7
S214080CDC12E00F49884202D84FF400710CE00D4917
S214080CEC884202D84FF4407106E00B49884294BFFC
S214080CFC4FF480614FF4A06111601960704700BF13
S214080D0CBFEA2101000A0E40000C0E407FF0FA02E2
S214080D1CFF8FD003FFB3C4047F4A5D0500093D006E
S214080D2C00000000DC03072044040720AC0407205E
S214080D3C000000000000000000000000000000009A
S214080D4C000000000000000000000000000000008A
S214080D5C00000000100C0800000000000000000056
S214080D6C000000000000000000000000000000006A
S214080D7C000000000000000000000000000000005A
S214080D8C000000000000000000000000000000004A
S214080D9C000000000000000000000000000000003A
S214080DAC000000000000000000000000000000002A
S214080DBC000000000000000000000000000000001A
S214080DCC0000000000000000010000000000000009
S214080DDC0E33CDAB34126DE6ECDE05000B000000CE
S214080DEC00000000000000000000000000000000EA
S214080DFC00000000000000000000000000000000DA
S214080E0C00000000000000000000000000000000C9
S214080E1C00000000000000000000000000000000B9
S8040808F1FA
