:0200000280007C
:10000000A02E0720AD080800A9080800A9080800CC
:10001000A9080800A9080800A908080000000000B5
:10002000000000000000000000000000A908080017
:10003000A908080000000000A9080800A908080095
:10004000A9080800A9080800A9080800A9080800CC
:10005000A9080800A9080800A9080800A9080800BC
:10006000A9080800A908080000000000D501080040
:100070002D07080041070800550708000000000090
:1000800000000000A9080800A9080800A908080045
:10009000A9080800A9080800A9080800A90808007C
:1000A000A908080000000000A908080019030800BA
:1000B000410308006903080095030800A908080027
:1000C000A9080800A9080800A9080800BD0308003D
:1000D000A9080800A9080800A9080800A90808003C
:1000E000A9080800A9080800A9080800A90808002C
:1000F000A908080010B5054C237833B9044B13B197
:100100000448AFF300800123237010BD5805072079
:1001100000000000680C0800084B10B51BB108492E
:100120000848AFF300800848036803B910BD074BC7
:10013000002BFBD0BDE81040184700BF00000000B6
:100140005C050720680C0800680C0800000000002F
:1001500010B442B2C0B200F01F04012303FA04F449
:1001600053099B0003F1604303F56143C3F88040EA
:10017000C3F88041002A06DA00F00F000901C9B275
:10018000064A115407E00901C9B202F1604202F5C2
:10019000614282F800131C6010BC704714ED00E04F
:1001A00038B54FF40062084B1A61084C802525646D
:1001B00000210B20064B9847C4F8B050C4F8C0503B
:1001C000C4F8D45038BD00BF00060E40000E0E40EB
:1001D000510108000F4B05221A601A64C3F88020F1
:1001E0000D490A601A6902F5CD3228325A611A6D3A
:1001F00002F54D3250325A65D3F8902002F599221B
:1002000002F5CF62C3F894200B6903F5CD23A03328
:100210004B617047000008400040084008B54FF0AF
:100220000062074B1A6101211B20064B9847064BC1
:1002300005225A624FF4004159601A6008BD00BFA0
:1002400000060E40510108000000084008B54FF0BC
:100250008052074B1A6102211C20064B9847064B1F
:1002600005225A664FF4004159641A6408BD00BF64
:1002700000060E40510108000000084008B54FF08C
:100280000052084B1A6103211D20074B9847074B6A
:100290000522C3F8A4204FF40041C3F88410C3F82A
:1002A000802008BD00060E405101080000000840F3
:1002B00008B54FF08042074B1A6104211E20064BFF
:1002C0009847064B05225A624FF4004159601A6064
:1002D00008BD00BF00060E40510108000040084064
:1002E00008B50822094BC3F8002109212320084B37
:1002F0009847084B0122C3F8A4204FF40042C3F8EA
:1003000084200522C3F8802008BD00BF00060E40EF
:100310005101080000800840074B1B6A074B9B6B8C
:1003200013F4003F4FF40032044B14BF5A631A63B6
:100330000222014B1A6070470000084000120E4074
:10034000074B1B6E074B9B6B13F4000F4FF400021F
:10035000044B14BF5A631A630222014B1A6470479C
:100360000000084000120E40084BD3F8A030084BA4
:100370009B6B13F4002F4FF40022054B14BF5A63FC
:100380001A630222014BC3F8802070470000084026
:1003900000120E40074B1B6A074B9B6B13F0805FEC
:1003A0004FF08052044B14BF5A631A630222014B70
:1003B0001A6070470040084000120E40704700BFAE
:1003C0004FF48072054B1A6103F5007350221A60D6
:1003D0004FF400625A602D221A62704700060E40E8
:1003E00010B50E480E4B98473E2100200D4B984704
:1003F0000D4CA0470028FCD00C4B98470C4A0D4BE5
:100400009A620D4CA0470028FCD010200B4B984757
:100410000B4B98470148024B984710BD00BD0105A2
:10042000A5000720D10708002508080035080800A6
:10043000013F0D2000060E4045080800690708002E
:100440005909080010B54FF40042164B5A600B20B2
:10045000154CA0470C20A0470D20A0470E20A04718
:100460004FF060513B20114CA0474FF06051552098
:10047000A0474FF060515620A0470D496820A04783
:100480000C495C20A0470C4A4FF440710B480C4BC0
:1004900098474FF000612B20A0474FF000612A20C1
:1004A000A04710BD501A0E40550808006905080005
:1004B000790000280100002801000008000E0E400D
:1004C0003D0608004264B1F1805F16D004D8C1B186
:1004D000B1F1006F0AD013E0B1F1405F11D0B1F17A
:1004E000605F0ED0B1F1205F0AD17047016F036FDA
:1004F0000B4023EA0203036702E0036F1343036721
:1005000042607047416412F0010F14BF41660166FA
:1005100012F00A0F14BF0162416212F0020F02D002
:10052000C0F8801004E012F0080F18BFC0F8841063
:1005300041610160704700BF10B44164019C0CB17F
:10054000416600E001660BB1016500E041650AB15A
:10055000016300E041630161016010BC704700BFAE
:10056000C06C7047806C704770B582B00D4643090F
:1005700003F5001303F207735C0201F0F043B3F1DB
:10058000205F30D006D8B3F1006F0AD0B3F1805F9E
:1005900018D049E0B3F1405F30D0B3F1605F2DD0A7
:1005A00042E000F01F000126864032464FF0006115
:1005B00020461F4B984715F0010F14BF666626664C
:1005C000012032E000F01F000126864032464FF045
:1005D00080512046164B984715F0010F14BF6666F0
:1005E0002666012021E000F01F0101262A4606FAB6
:1005F00001F120460F4B9847304616E005F0605257
:1006000000F01F01012605EA06030093C5F38003ED
:10061000B2F1605F14BF0022012206FA01F1204608
:10062000054CA047304600E0002002B070BD00BF7E
:10063000C5040800050508003905080070B582B03A
:1006400005460E46144602F0F043B3F1205F26D073
:1006500006D8B3F1006F0AD0B3F1805F13D034E055
:10066000B3F1405F1FD0B3F1605F1CD02DE00A46AC
:100670004FF00061164B984714F0010F14BF6E66DF
:100680002E66012022E00A464FF08051104B984719
:1006900014F0010F14BF6E662E66012016E00D4B9C
:1006A0009847012012E004F0605204F00103009327
:1006B000C4F38003B2F1605F14BF0022012231460F
:1006C0002846054CA047012000E0002002B070BD84
:1006D000C504080005050800390508002DE9F041AA
:1006E000044688460E4B9847054620460D4B9847D2
:1006F000054013D00C4C04F160062368434508D133
:100700006168294205D0E36840469847636825EA56
:100710000305B44202D01034002DEED1BDE8F081C3
:1007200061050800650508007405072008B50C215F
:100730000148024B984708BD00100E40DD06080036
:1007400008B50D210148024B984708BD00120E4024
:10075000DD06080008B50E210148024B984708BD88
:1007600000140E40DD060800184A136B23F07003D6
:1007700018431063936E13F0080F03D009E0013B98
:1007800003D11EE04FF4006310498A6E12F0080F87
:10079000F5D00E4A136B23F0030343F002031363F7
:1007A000906E10F0080004D000207047013B03D188
:1007B00009E04FF4006305498A6E12F0080FF5D086
:1007C0007047012070470120704700BF00060E40AF
:1007D00038B111490B6A114A1A40114B13430B628D
:1007E00070470D48026A090289B222F45C1323F0B3
:1007F000030343F45C1343F001030B43036202461B
:10080000936E13F0010FFBD0034A136A43F09B73FE
:1008100043F480331362704700060E40FCFFC8FEAD
:1008200002003701024B986E00F48030704700BF21
:1008300000060E404FF00052014B9A62704700BF15
:1008400000060E40024B986E00F00200704700BF99
:1008500000060E402C281ED81F280CD8114B9A6970
:1008600001238340934318D0012303FA00F00D4B7A
:1008700018610020704720380A4BD3F80821012363
:10088000834093430BD0012303FA00F0054BC3F8D8
:1008900000010020704701207047002070470020B1
:1008A000704700BF00060E40FEE700BF08B51E4BB4
:1008B0001E4A9A4203D01E4B1B4A9A4204D31D4B38
:1008C0001D4A9A420FD31AE017491C4B5B1A23F0BA
:1008D00003030433154A134452F8040B41F8040B84
:1008E0009A42F9D1EBE7164B164AD21A22F00302CC
:1008F0001A44043B002143F8041B9342FBD1124BE2
:1009000023F0604222F07F0210498A6003F16043C5
:10091000B3F5801F03D28B6843F000538B600C4B00
:1009200098470C4B9847FEE700000720680C08002A
:10093000580507209C0E072058050720570507205B
:100940005C0507209F0E07200000080000ED00E076
:10095000010B0800910A08003E4B1B6B03F00303D8
:10096000032B5FD8DFE803F0020E2B2B3A4B5B69B9
:1009700013F0800F14BF4FF400424FF4FA42374B8C
:100980001A604FE0334B1B6A13F0807F03D0344A68
:10099000324B1A6046E0334A304B1A602D4B1B6ACB
:1009A00003F07003102B02D0202B04D03AE02E4A23
:1009B0002A4B1A6036E02A4A284B1A6032E0254B4F
:1009C0001B6A13F0807F03D0254A244B1A6012E083
:1009D000244A224B1A601F4B1B6A03F07003102B32
:1009E00002D0202B04D006E01F4A1C4B1A6002E004
:1009F0001B4A1A4B1A60174B1B6B03F00303022BA5
:100A00000DD1144A936A926A1448C3F30A410368E9
:100A100001FB0333D2B2B3FBF2F3036002E0134AEB
:100A20000E4B1A600B4B1B6B03F07003702B07D13E
:100A30000A4A13680E49A1FB03135B081360704751
:100A4000044B1B6B0549C3F302120B68D3400B60C8
:100A5000704700BF00060E40101A0E402C01072000
:100A6000001BB70000093D0000127A00001C4E0E6A
:100A7000ABAAAAAA4FF40052034B1A6103F54063D4
:100A8000024A1A601A61704700060E4000008A1080
:100A900008B50E4B98470E4B98470E4B98470E4B98
:100AA00098470E4B98470E4B98470E4B98470E4B66
:100AB00098470E4B98470E4B984700230D4A1360FA
:100AC0000D4A13600D4A1360FEE700BFE103080002
:100AD00045040800C10308001D0208004D0208007B
:100AE0007D020800B1020800E1020800A10108002F
:100AF000750A0800940E0720E80D0720F00D072066
:100B000070B50F4E0F4D761BB61018BF002405D0E0
:100B1000013455F8043B9847A642F9D10A4E0B4DD3
:100B200000F090F8761BB61018BF002406D00134F0
:100B300055F8043B9847A642F9D170BD70BD00BF7F
:100B4000500C0800500C0800580C0800500C08000D
:100B5000024B13B1024800F005B8704700000000D6
:100B6000710B0800002301461A46184600F014B81D
:100B700038B5074D074C2C1BA41005D0013C55F887
:100B8000043D9847002CF9D1BDE8384000F064B826
:100B9000680C0800640C08002DE9F047254C064657
:100BA00025688846D5F8484192469946C4B360689E
:100BB0001F2817DC411C76B104EB8003C3F888A022
:100BC000D4F88851012282401543022EC4F888517E
:100BD000C3F808911ED0831C6160002044F8238074
:100BE000BDE8F087144B03B34FF4C870AFF3008037
:100BF0000446D0B1D5F84831002784E8880038464B
:100C0000C5F848410121C4F88871C4F88C71002EE0
:100C1000E1D0D1E7D4F88C311A43C4F88C21DAE75B
:100C200005F5A674C5F84841C1E74FF0FF30BDE8AF
:100C3000F08700BF400C08000000000043000000E7
:100C400030010720F8B500BFF8BC08BC9E467047CD
:100C5000510B080019010800F8B500BFF8BC08BC2A
:080C60009E467047F5000800F4
:100C68004FF48063204A136002F5007213601F4B33
:100C78001B6A13F0807F07D11D4A1C4B1A621A4663
:100C8800936E13F0010FFBD01A4A184B1A621A46DA
:100C9800936E13F4803FFBD0144A136B23F00303C5
:100CA80043F001031363936E13F0080FFBD0124A4D
:100CB8000E4B9A621A46936E13F0020FFBD0112264
:100CC8000A4B1A631A46936E13F0080FFBD01222D0
:100CD800064B1A631A46936E13F0080FFBD0074AA7
:100CE800074B1A60704700BF000A0E4000060E400E
:100CF8000908370009083701013F0D2000BD01052B
:100D08002C0107201B4B984206D800231A4A13606F
:100D180002F5007213607047184B984207D84FF4D9
:100D28008073154A136002F5007213607047144B04
:100D3800984207D84FF400730F4A136002F5007207
:100D4800136070470F4B984207D84FF440730A4A14
:100D5800136002F50072136070470B4B984294BF02
:100D68004FF480634FF4A063034A136002F50072E6
:100D780013607047BFEA2101000A0E407FF0FA02B3
:100D8800FF8FD003FFB3C4047F4A5D0500093D000F
:100D9800000000001C04072084040720EC0407203E
:100DA800000000000000000000000000000000003B
:100DB800000000000000000000000000000000002B
:100DC800000000003C0C08000000000000000000CB
:100DD800000000000000000000000000000000000B
:100DE80000000000000000000000000000000000FB
:100DF80000000000000000000000000000000000EB
:100E080000000000000000000000000000000000DA
:100E180000000000000000000000000000000000CA
:100E280000000000000000000000000000000000BA
:100E380000000000000000000100000000000000A9
:100E48000E33CDAB34126DE6ECDE05000B0000006E
:100E5800000000000000000000000000000000008A
:100E6800000000000000000000000000000000007A
:100E7800000000000000000000000000000000006A
:100E8800000000000000000000000000000000005A
:04000003800008ADC4
:00000001FF
