S00C0000746573742E7372656358
S214080000A02E0720C5090800C1090800C109080074
S214080010C1090800C1090800C1090800000000005D
S214080020000000000000000000000000C1090800F1
S214080030C109080000000000C1090800C10908003D
S214080040C1090800C1090800C1090800C10908005B
S214080050C1090800C1090800C1090800C10908004B
S214080060C1090800C109080000000000D501080001
S21408007045080800590808006D0808000000000038
S21408008000000000C1090800C1090800C1090800ED
S214080090C1090800C1090800C1090800C10908000B
S2140800A0C109080000000000C10908003104080062
S2140800B05904080081040800AD040800C1090800B6
S2140800C0C1090800C1090800C1090800D5040800CC
S2140800D0C1090800C1090800C1090800C1090800CB
S2140800E0C1090800C1090800C1090800C1090800BB
S2140800F0C109080010B5054C237833B9044B13B171
S2140801000448AFF300800123237010BD580507206C
S21408011000000000880D0800084B10B51BB1084900
S2140801200848AFF300800848036803B910BD074BBA
S214080130002BFBD0BDE81040184700BF00000000A9
S2140801405C050720880D0800880D080000000000E0
S21408015010B442B2C0B200F01F04012303FA04F43C
S21408016053099B0003F1604303F56143C3F88040DD
S214080170C3F88041002A06DA00F00F000901C9B268
S214080180064A115407E00901C9B202F1604202F5B5
S214080190614282F800131C6010BC704714ED00E042
S2140801A038B54FF40062084B1A61084C8025256460
S2140801B000210B20064B9847C4F8B050C4F8C0502E
S2140801C0C4F8D45038BD00BF00060E40000E0E40DE
S2140801D05101080008B52A4BDB6C2A48D0F8903045
S2140801E029490A689A1A294B1A60D0F890300B6089
S2140801F0274B1B68C3EB03132649A1FB0313B2EB7B
S214080200D30F0AD90022244B1A609520234B98470F
S214080210C0F10B00224B18700AE01F4B1B680C2B12
S21408022006D195201D4B9847C0F117001D4B187036
S2140802301C4B1A78184B1B689A4208D1144B19683D
S2140802409520194B9847194B586505221A64144B84
S2140802501A78114B1B689A4208D10D4B19689520DD
S214080260114B9847114B586105221A600A4A1368C1
S21408027001331360054B1A68054B1A6008BD00BFAA
S214080280000E0E4000800840F00D0720F80D0720ED
S214080290940E0720CDCCCCCC980E0720B1020800CF
S2140802A0F60D0720EC0D0720E902080000000840BC
S2140802B0C0F1B400642303FB00F0094B83FB002362
S2140802C00344C017C0EBE31303EB4303DB00054806
S2140802D080FB0320DB17C3EBA01080B2704700BF7B
S2140802E0B7600BB61F85EB5138B504460D460E4B66
S2140802F09847C4F1B40442F2107202FB04F30B49A7
S21408030081FB03411944DB17C3EBE11303EB4303FB
S214080310A2EB830302FB003005FB00F50448A0FBB4
S2140803200530400B38BD00BFB1020800B7600BB6F9
S2140803305917B7D108B54FF00062074B1A6101216B
S2140803401B20064B9847064B05225A624FF400417D
S21408035059601A6008BD00BF00060E40510108002B
S2140803600000084008B54FF08052074B1A6102217A
S2140803701C20064B9847064B05225A664FF4004148
S21408038059641A6408BD00BF00060E4051010800F3
S2140803900000084008B54FF00052084B1A610321C8
S2140803A01D20074B9847074B0522C3F8A4204FF497
S2140803B00041C3F88410C3F8802008BD00060E402C
S2140803C0510108000000084008B54FF08042074B6E
S2140803D01A6104211E20064B9847064B05225A62CE
S2140803E04FF4004159601A6008BD00BF00060E4071
S2140803F0510108000040084008B50822094BC3F818
S214080400002109212320084B9847084B0122C3F8EE
S214080410A4204FF40042C3F884200522C3F88020A5
S21408042008BD00BF00060E405101080000800840C5
S214080430074B1B6A074B9B6B13F4003F4FF40032C5
S214080440044B14BF5A631A630222014B1A607047A2
S2140804500000084000120E40074B1B6E074B9B6BB4
S21408046013F4000F4FF40002044B14BF5A631A63C8
S2140804700222014B1A6470470000084000120E4022
S214080480084BD3F8A030084B9B6B13F4002F4FF49F
S2140804900022054B14BF5A631A630222014BC3F8A5
S2140804A0802070470000084000120E40074B1B6A69
S2140804B0074B9B6B13F0805F4FF08052044B14BFC2
S2140804C05A631A630222014B1A60704700400840BC
S2140804D000120E40704700BF4FF48072054B1A6139
S2140804E003F5007350221A604FF400625A602D22FA
S2140804F01A62704700060E4010B50E480E4B984715
S2140805003E2100200D4B98470D4CA0470028FCD0F4
S2140805100C4B98470C4A0D4B9A620D4CA047002886
S214080520FCD010200B4B98470B4B98470148024BC2
S214080530984710BD00BD0105A5000720E90808007A
S2140805403D0908004D090800013F0D2000060E4031
S2140805505D09080081080800710A080010B54FF404
S2140805600042164B5A600B20154CA0470C20A0479B
S2140805700D20A0470E20A0474FF060513B20114C9D
S214080580A0474FF060515520A0474FF060515620C5
S214080590A0470D496820A0470C495C20A0470C4A94
S2140805A04FF440710B480C4B98474FF000612B20D6
S2140805B0A0474FF000612A20A04710BD501A0E40F1
S2140805C06D09080081060800790000280100002847
S2140805D001000008000E0E40550708004264B1F1FD
S2140805E0805F16D004D8C1B1B1F1006F0AD013E00D
S2140805F0B1F1405F11D0B1F1605F0ED0B1F1205F6C
S2140806000AD17047016F036F0B4023EA02030367A2
S21408061002E0036F1343036742607047416412F0B9
S214080620010F14BF4166016612F00A0F14BF01627B
S214080630416212F0020F02D0C0F8801004E012F0F7
S214080640080F18BFC0F8841041610160704700BFEA
S21408065010B44164019C0CB1416600E001660BB120
S214080660016500E041650AB1016300E0416301618C
S214080670016010BC704700BFC06C7047806C704744
S21408068070B582B00D46430903F5001303F20773ED
S2140806905C0201F0F043B3F1205F30D006D8B3F126
S2140806A0006F0AD0B3F1805F18D049E0B3F1405F1D
S2140806B030D0B3F1605F2DD042E000F01F00012675
S2140806C0864032464FF0006120461F4B984715F08B
S2140806D0010F14BF66662666012032E000F01F0090
S2140806E00126864032464FF080512046164B9847E2
S2140806F015F0010F14BF66662666012021E000F09B
S2140807001F0101262A4606FA01F120460F4B984794
S214080710304616E005F0605200F01F01012605EA93
S21408072006030093C5F38003B2F1605F14BF00228E
S214080730012206FA01F12046054CA047304600E0A3
S214080740002002B070BD00BFDD0508001D060800C9
S2140807505106080070B582B005460E46144602F0EB
S214080760F043B3F1205F26D006D8B3F1006F0AD065
S214080770B3F1805F13D034E0B3F1405F1FD0B3F11C
S214080780605F1CD02DE00A464FF00061164B984774
S21408079014F0010F14BF6E662E66012022E00A468A
S2140807A04FF08051104B984714F0010F14BF6E6637
S2140807B02E66012016E00D4B9847012012E004F043
S2140807C0605204F001030093C4F38003B2F1605F43
S2140807D014BF0022012231462846054CA0470120B6
S2140807E000E0002002B070BDDD0508001D06080008
S2140807F0510608002DE9F041044688460E4B9847F6
S214080800054620460D4B9847054013D00C4C04F17E
S21408081060062368434508D16168294205D0E36825
S21408082040469847636825EA0305B44202D0103468
S214080830002DEED1BDE8F081790608007D06080097
S2140808407405072008B50C210148024B984708BDD7
S21408085000100E40F507080008B50D210148024BA8
S214080860984708BD00120E40F507080008B50E2187
S2140808700148024B984708BD00140E40F5070800CB
S214080880184A136B23F0700318431063936E13F023
S214080890080F03D009E0013B03D11EE04FF40063C4
S2140808A010498A6E12F0080FF5D00E4A136B23F023
S2140808B0030343F002031363906E10F0080004D09D
S2140808C000207047013B03D109E04FF40063054957
S2140808D08A6E12F0080FF5D0704701207047012085
S2140808E0704700BF00060E4038B111490B6A114A1E
S2140808F01A40114B13430B6270470D48026A0902EF
S21408090089B222F45C1323F0030343F45C1343F028
S21408091001030B4303620246936E13F0010FFBD0EC
S214080920034A136A43F09B7343F480331362704799
S21408093000060E40FCFFC8FE02003701024B986E08
S21408094000F48030704700BF00060E404FF000529B
S214080950014B9A62704700BF00060E40024B986E25
S21408096000F00200704700BF00060E402C281ED874
S2140809701F280CD8114B9A6901238340934318D03B
S214080980012303FA00F00D4B186100207047203849
S2140809900A4BD3F808210123834093430BD0012345
S2140809A003FA00F0054BC3F8000100207047012049
S2140809B07047002070470020704700BF00060E40B2
S2140809C0FEE700BF08B51E4B1E4A9A4203D01E4BD0
S2140809D01B4A9A4204D31D4B1D4A9A420FD31AE06B
S2140809E017491C4B5B1A23F003030433154A1344B8
S2140809F052F8040B41F8040B9A42F9D1EBE7164B70
S214080A00164AD21A22F003021A44043B002143F87D
S214080A10041B9342FBD1124B23F0604222F07F0264
S214080A2010498A6003F16043B3F5801F03D28B68D0
S214080A3043F000538B600C4B98470C4B9847FEE7E7
S214080A4000000720880D0800580507209C0E072080
S214080A5058050720570507205C0507209F0E072026
S214080A600000080000ED00E0210C0800A90B0800B3
S214080A703E4B1B6B03F00303032B5FD8DFE803F042
S214080A80020E2B2B3A4B5B6913F0800F14BF4FF402
S214080A9000424FF4FA42374B1A604FE0334B1B6A5A
S214080AA013F0807F03D0344A324B1A6046E0334A4C
S214080AB0304B1A602D4B1B6A03F07003102B02D0C4
S214080AC0202B04D03AE02E4A2A4B1A6036E02A4AEF
S214080AD0284B1A6032E0254B1B6A13F0807F03D040
S214080AE0254A244B1A6012E0244A224B1A601F4BF0
S214080AF01B6A03F07003102B02D0202B04D006E0EC
S214080B001F4A1C4B1A6002E01B4A1A4B1A60174B06
S214080B101B6B03F00303022B0DD1144A936A926AE7
S214080B201448C3F30A41036801FB0333D2B2B3FB8C
S214080B30F2F3036002E0134A0E4B1A600B4B1B6B72
S214080B4003F07003702B07D10A4A13680E49A1FBFD
S214080B5003135B0813607047044B1B6B0549C3F30C
S214080B6002120B68D3400B60704700BF00060E40A9
S214080B70101A0E402C010720001BB70000093D0084
S214080B8000127A00001C4E0EABAAAAAA4FF4005216
S214080B90034B1A6103F54063024A1A601A617047EC
S214080BA000060E4000008A1008B50F4B98470F4BFA
S214080BB098470F4B98470F4B98470F4B98470F4B44
S214080BC098470F4B98470F4B98470F4B98470F4B34
S214080BD0984700230E4A13600E4A13600E4A1360A5
S214080BE00E4A1360FEE700BFF90408005D0508001A
S214080BF0D9040800350308006503080095030800B3
S214080C00C9030800F9030800A10108008D0B0800B5
S214080C10980E0720F80D0720940E0720F00D0720E1
S214080C2070B50F4E0F4D761BB61018BF002405D0B2
S214080C30013455F8043B9847A642F9D10A4E0B4DA5
S214080C4000F090F8761BB61018BF002406D00134C2
S214080C5055F8043B9847A642F9D170BD70BD00BF51
S214080C60700D0800700D0800780D0800700D08005B
S214080C70024B13B1024800F005B8704700000000A8
S214080C80910C0800002301461A46184600F014B8CE
S214080C9038B5074D074C2C1BA41005D0013C55F859
S214080CA0043D9847002CF9D1BDE8384000F064B8F8
S214080CB0880D0800840D08002DE9F047254C0646E7
S214080CC025688846D5F8484192469946C4B3606870
S214080CD01F2817DC411C76B104EB8003C3F888A0F4
S214080CE0D4F88851012282401543022EC4F8885150
S214080CF0C3F808911ED0831C6160002044F8238046
S214080D00BDE8F087144B03B34FF4C870AFF3008008
S214080D100446D0B1D5F84831002784E8880038461C
S214080D20C5F848410121C4F88871C4F88C71002EB2
S214080D30E1D0D1E7D4F88C311A43C4F88C21DAE72D
S214080D4005F5A674C5F84841C1E74FF0FF30BDE881
S214080D50F08700BF600D0800000000004300000098
S214080D6030010720F8B500BFF8BC08BC9E4670479F
S214080D70710C080019010800F8B500BFF8BC08BCDB
S20C080D809E467047F5000800C6
S214080D884FF48063204A136002F5007213601F4B05
S214080D981B6A13F0807F07D11D4A1C4B1A621A4635
S214080DA8936E13F0010FFBD01A4A184B1A621A46AC
S214080DB8936E13F4803FFBD0144A136B23F0030397
S214080DC843F001031363936E13F0080FFBD0124A1F
S214080DD80E4B9A621A46936E13F0020FFBD0112236
S214080DE80A4B1A631A46936E13F0080FFBD01222A2
S214080DF8064B1A631A46936E13F0080FFBD0074A79
S214080E08074B1A60704700BF000A0E4000060E40DF
S214080E180908370009083701013F0D2000BD0105FC
S214080E282C0107201B4B984206D800231A4A136041
S214080E3802F5007213607047184B984207D84FF4AB
S214080E488073154A136002F5007213607047144BD6
S214080E58984207D84FF400730F4A136002F50072D9
S214080E68136070470F4B984207D84FF440730A4AE6
S214080E78136002F50072136070470B4B984294BFD4
S214080E884FF480634FF4A063034A136002F50072B8
S214080E9813607047BFEA2101000A0E407FF0FA0285
S214080EA8FF8FD003FFB3C4047F4A5D0500093D00E1
S214080EB8000000001C04072084040720EC04072010
S214080EC8000000000000000000000000000000000D
S214080ED800000000000000000000000000000000FD
S214080EE8000000005C0D080000000000000000007C
S214080EF800000000000000000000000000000000DD
S214080F0800000000000000000000000000000000CC
S214080F1800000000000000000000000000000000BC
S214080F2800000000000000000000000000000000AC
S214080F38000000000000000000000000000000009C
S214080F48000000000000000000000000000000008C
S214080F58000000000000000001000000000000007B
S214080F680E33CDAB34126DE6ECDE05000B00000040
S214080F78000000000000000000000000000000005C
S214080F88000000000000000000000000000000004C
S214080F98000000000000000000000000000000003C
S214080FA8000000000000000000000000000000002C
S8040809C525
